:020000040800F2
:10000000000006209507000865070008670700083C
:10001000690700086B0700086D0700080000000072
:100020000000000000000000000000006F07000852
:10003000710700080000000073070008750700083A
:10004000DD070008DD070008DD070008DD07000800
:10005000DD070008DD070008DD070008DD070008F0
:10006000DD070008DD070008DD070008DD070008E0
:10007000DD070008DD070008DD070008DD070008D0
:10008000DD070008DD070008DD070008DD070008C0
:10009000DD070008DD070008DD070008DD070008B0
:1000A000DD070008DD070008DD070008DD070008A0
:1000B000DD070008DD070008DD070008DD07000890
:1000C000DD070008DD070008DD070008DD07000880
:1000D000DD070008DD070008DD070008DD07000870
:1000E000DD070008DD070008DD070008DD07000860
:1000F000DD070008DD070008DD070008DD07000850
:10010000DD070008DD070008DD070008DD0700083F
:10011000DD070008DD070008DD070008DD0700082F
:10012000DD070008DD070008DD070008DD0700081F
:10013000DD070008DD070008DD070008DD0700080F
:10014000DD070008DD070008DD070008DD070008FF
:10015000DD070008DD07000800000000DD070008DB
:10016000DD070008DD0700080000000000000000B7
:10017000DD070008DD070008DD07000800000000BB
:1001800000000000DD070008DD070008DD070008AB
:10019000DD07000800000000000000000000000073
:1001A000000000000000000000000000DD07000863
:1001B000DD07000800000000DD0700080000000067
:1001C000000000000000000000000000000000002F
:1001D0000000000000000000DD070008DD07000847
:1001E000DD070008DD070008DD070008DD0700085F
:1001F000DD070008DD070008DD070008DD0700084F
:0C020000DD070008DD070008DD0700082E
:10020C0010B5054C237833B9044B13B10448AFF344
:10021C0000800123237010BD540400200000000056
:10022C00F00C000808B5034B1BB103490348AFF3AE
:10023C00008008BD0000000058040020F00C0008ED
:10024C0053B94AB9002908BF00281CBF4FF0FF3131
:10025C004FF0FF3000F074B9ADF1080C6DE904CE2D
:10026C0000F006F8DDF804E0DDE9022304B0704785
:10027C002DE9F047089D04468E46002B4DD18A424D
:10028C00944669D9B2FA82F252B101FA02F3C2F180
:10029C00200120FA01F10CFA02FC41EA030E944011
:1002AC004FEA1C48210CBEFBF8F61FFA8CF708FB32
:1002BC0016E341EA034306FB07F199420AD91CEB0A
:1002CC00030306F1FF3080F01F81994240F21C813C
:1002DC00023E63445B1AA4B2B3FBF8F008FB103384
:1002EC0044EA034400FB07F7A7420AD91CEB0404B9
:1002FC0000F1FF3380F00A81A74240F20781644489
:10030C00023840EA0640E41B00261DB1D44000230D
:10031C00C5E900433146BDE8F0878B4209D9002D71
:10032C0000F0EF800026C5E9000130463146BDE8FB
:10033C00F087B3FA83F6002E4AD18B4202D3824265
:10034C0000F2F980841A61EB030301209E46002D14
:10035C00E0D0C5E9004EDDE702B9FFDEB2FA82F269
:10036C00002A40F09280A1EB0C014FEA1C471FFAC7
:10037C008CFE0126200CB1FBF7F307FB131140EAAE
:10038C0001410EFB03F0884208D91CEB010103F17B
:10039C00FF3802D2884200F2CB804346091AA4B23D
:1003AC00B1FBF7F007FB101144EA01440EFB00FE11
:1003BC00A64508D91CEB040400F1FF3102D2A64576
:1003CC0000F2BB800846A4EB0E0440EA03409CE715
:1003DC00C6F12007B34022FA07FC4CEA030C20FAC2
:1003EC0007F401FA06F31C43F9404FEA1C4900FAE2
:1003FC0006F3B1FBF9F8200C1FFA8CFE09FB18115F
:10040C0040EA014108FB0EF0884202FA06F20BD9D1
:10041C001CEB010108F1FF3A80F08880884240F221
:10042C008580A8F102086144091AA4B2B1FBF9F065
:10043C0009FB101144EA014100FB0EFE8E4508D960
:10044C001CEB010100F1FF346CD28E456AD90238E5
:10045C00614440EA0840A0FB0294A1EB0E01A142CA
:10046C00C846A64656D353D05DB1B3EB080261EB38
:10047C000E0101FA07F722FA06F3F1401F43C5E912
:10048C00007100263146BDE8F087C2F12003D84048
:10049C000CFA02FC21FA03F3914001434FEA1C478A
:1004AC001FFA8CFEB3FBF7F007FB10360B0C43EA7C
:1004BC00064300FB0EF69E4204FA02F408D91CEB2C
:1004CC00030300F1FF382FD29E422DD9023863442A
:1004DC009B1B89B2B3FBF7F607FB163341EA0341CA
:1004EC0006FB0EF38B4208D91CEB010106F1FF3819
:1004FC0016D28B4214D9023E6144C91A46EA004610
:10050C0038E72E46284605E70646E3E61846F8E6A1
:10051C004B45A9D2B9EB020864EB0C0E0138A3E7EA
:10052C004646EAE7204694E74046D1E7D0467BE7CB
:10053C00023B614432E7304609E76444023842E743
:10054C00704700BF00B583B001214FF4401000F09C
:10055C0030FA684600F017FB01238DF807300022B3
:10056C008DF804208DF80620009302238DF80530B9
:10057C006946034800F0C0FA03B05DF804FB00BF05
:10058C000000024010B582B0044601210E4B53F816
:10059C00200000F00EFA684600F0F5FA01228DF802
:1005AC00072000238DF804308DF80620074A32F816
:1005BC00142000928DF805306946054B53F8240041
:1005CC0000F09AFA02B010BD000000200C000020D0
:1005DC0014000020022807D8044B33F810301BB14C
:1005EC00034A52F820209361704700BF0C00002092
:1005FC0014000020022809D8054B33F810302BB119
:10060C00044A52F820104A6953404B61704700BFAE
:10061C000C0000201400002008B5042000F0BDFAE6
:10062C00074B1B68074AA2FB03239B0C064A13606B
:10063C0013684FF47A7202FB03F3044A136008BD8B
:10064C002000002083DE1B43740400207004002073
:10065C0008B5FFF7E1FF0020FFF794FF0020FFF73C
:10066C00B9FFFFF76FFF08BD1EE0174B1B6803FBBC
:10067C0000F04FF0E023586100204FF0E0230022FF
:10068C009A611A6942F001021A614FF0E0231B696A
:10069C0003F00113012BF8D04FF0E0231A6922F07C
:1006AC0001021A6100229A6160B13228DDD9064B31
:1006BC001B68322202FB03F34FF0E0225361323805
:1006CC0080B2DAE7704700BF7004002008B500F074
:1006DC0021F901211E4800F06CF91E4B1A6901200A
:1006EC0060F302021A6103F5E6331A6E60F301023D
:1006FC001A66014600F07CF900F048F90028FBD09E
:10070C00032301229021104600F0C6F9012102209A
:10071C0000F06EF9192000F027F90128FAD1002019
:10072C0000F08EF9042000F09BF9042000F090F901
:10073C00012000F09DF9022000F0CEF900F0D4F970
:10074C000228FBD1002000F093F900F079F808BDE5
:10075C001C004000007000407047FEE7FEE7FEE71B
:10076C00FEE7704770477047704708B5FFF7AEFF5C
:10077C00FFF76EFF6420FFF777FF0020FFF73AFFCB
:10078C006420FFF771FFF5E7002103E00B4B5B588A
:10079C00435004310A480B4B42189A42F6D30A4A8A
:1007AC0002E0002342F8043B084B9A42F9D300F0D4
:1007BC0011F800F003FAFFF7D8FF7047380D000866
:1007CC000000002054040020540400207C0400206D
:1007DC00FEE70000174AD2F8883043F47003C2F8E1
:1007EC008830154A136843F001031360124B1B68E1
:1007FC0013F0020FFAD0104B9A686FF301029A6053
:10080C000D4B9B6813F00C0FFAD10B4B1A6822F0AE
:10081C00867222F480321A6000229A60074959606D
:10082C00C3F8A0204FF41F02DA60024B4FF00062B5
:10083C009A60704700ED00E000380240023003007F
:10084C0010B500F051F901281AD0022826D018B1A1
:10085C002A4B2B4A1A6016E02A4BD3F8A03013F41B
:10086C00804F09D0274BD3F8A03013F4805F03D00E
:10087C00224B254A1A6006E0204B214A1A6002E0FE
:10088C001E4B1F4A1A601F4B9B68C3F303131F4A6E
:10089C00D15C1A4A1368CB40136010BD194B5A68CF
:1008AC005968C1F3881C5A6802F00F025B68C3F3E5
:1008BC000243174911F803E04FEA4C11B1EB0C005D
:1008CC0064EB0404A30143EA90638101091A63EB0E
:1008DC000403DB0043EA5173C90011EB0C0C43F128
:1008EC00000359020EFB02F200234FEA4C2041EAAE
:1008FC00DC51FFF7A5FC014B1860C4E72000002079
:10090C0000127A0000380240006CDC02100D000866
:10091C00080D0008124A136843F001031360104BD2
:10092C001B6813F0020FFAD00D4B9A686FF301029B
:10093C009A600B4B9B6813F00C0FFAD1084B1A689A
:10094C0022F0867222F480321A6000229A600549E5
:10095C005960C3F8A0204FF41F02DA60704700BF43
:10096C000038024002300300030C03F1804303F50E
:10097C000E331A6800F01F00012303FA00F030EA6E
:10098C00020301D0002070470120704710B50024ED
:10099C001120FFF7E9FF012804D0B4F5405F01D224
:1009AC000134F5E71120FFF7DFFF012800D000200C
:1009BC0010BD01290ED0030C03F1804303F50E3357
:1009CC001A6800F01F00012101FA00F022EA000071
:1009DC0018607047030C03F1804303F50E331A685B
:1009EC0000F01F0001FA00F010431860704700007F
:1009FC00042821D8DFE800F003090F151B000F4B6A
:100A0C001A6861F300021A6070470C4B1A6861F3A4
:100A1C0010421A607047094B1A6861F318621A6029
:100A2C007047064B1A6F61F300021A677047034B4D
:100A3C005A6F61F300025A67704700BF00380240DA
:100A4C00024B9A6860F307129A60704700380240B4
:100A5C00024B9A6860F38C229A607047003802400F
:100A6C00024B9A6860F34F329A607047003802402C
:100A7C00012807D0074BD3F8A4206FF30512C3F855
:100A8C00A4207047034AD2F8A43043F03003C2F8D4
:100A9C00A43070470038024010B4844630B90D4C75
:100AAC00D4F8A00040F48050C4F8A0000948446871
:100ABC006CF396544460446861F38E14446041684E
:100ACC0062F303014160426863F3124242605DF8D5
:100ADC00044B704700380240024B9A6860F30102E5
:100AEC009A60704700380240024B9868C0F381004E
:100AFC00704700BF0038024030B50C88002302E07C
:100B0C00640801339BB2002C3CD014F0010FF7D0D9
:100B1C0005684FEA430C032202FA0CF225EA02059F
:100B2C000560056891F806E00EFA0CFE45EA0E0524
:100B3C00056045684FF0010E0EFA03FE25EA0E051E
:100B4C004560456891F804E00EFA03FE45EA0E058F
:100B5C004560856825EA02058560856891F807E09F
:100B6C000EFA0CFE45EA0E058560C56825EA020200
:100B7C00C260C26891F805E00EFA0CFC42EA0C0265
:100B8C00C260BDE730BD4FF6FF7303600023837175
:100B9C00037143710123C3717047042806D04FF0D1
:100BAC00E022136923F00403136170474FF0E02235
:100BBC00136943F0040313617047000070B50D4EC8
:100BCC000D4D761BB61006D0002455F8043B0134AD
:100BDC009847A642F9D1094E094D761B00F082F8D0
:100BEC00B61006D0002455F8043B01349847A642B1
:100BFC00F9D170BD2C0D00082C0D0008340D000827
:100C0C002C0D0008024B13B1024800F005B87047D8
:100C1C0000000000310C0008002301461A4618465B
:100C2C0000F01AB838B5084B084D5B1B9C1007D068
:100C3C00043B1D44013C55F804399847002CF9D16C
:100C4C00BDE8384000F054B8380D0008340D0008E9
:100C5C00704700BF704700BF2DE9F047DFF880A058
:100C6C000646DAF8000098460F469146FFF7F0FF6B
:100C7C001A4B1B68D3F8484124B365681F2D26DC3A
:100C8C005EB96B1C0235DAF80000636044F825701D
:100C9C00FFF7E0FF0020BDE8F08704EB850101239E
:100CAC00C1F88890D4F88821AB401A43022EC4F8BE
:100CBC008821C1F80881E4D1D4F88C211343C4F8FD
:100CCC008C31DEE703F5A674C3F84841D5E7DAF8B2
:100CDC000000FFF7BFFF4FF0FF30DCE7200D0008EE
:100CEC0050040020F8B500BFF8BC08BC9E46704705
:0C0CFC00F8B500BFF8BC08BC9E4670476D
:100D0800010204081020000000000000000000009C
:0C0D18000102030406070809280000205F
:080D240058F5FF7F01000000FB
:080D2C00110C0008310200085F
:040D34000D020008A4
:100D380002003000030030000300300000200040B3
:100D48000080000000080240000C0240000C024035
:100D580000127A00000000000000000014030020C8
:100D68007C030020E40300200000000000000000D5
:100D7800000000000000000000000000000000006B
:100D8800000000000000000000000000000000005B
:100D9800000000000000000000000000000000004B
:100DA800000000000000000000000000000000003B
:100DB800000000000000000000000000000000002B
:100DC800000000000000000000000000000000001B
:100DD800000000000000000000000000000000000B
:100DE80000000000000000000000000000000000FB
:100DF80000000000000000000000000000000000EB
:100E080001000000000000000E33CDAB34126DE687
:100E1800ECDE05000B0000000000000000000000F0
:100E280000000000000000000000000000000000BA
:100E380000000000000000000000000000000000AA
:100E4800000000000000000000000000000000009A
:100E5800000000000000000000000000000000008A
:0411880078040020C7
:040000050800079553
:00000001FF
