:020000040800F2
:100000000000062089070008590700085B07000860
:100010005D0700085F070008610700080000000096
:10002000000000000000000000000000630700085E
:10003000650700080000000067070008690700085E
:10004000D1070008D1070008D1070008D107000830
:10005000D1070008D1070008D1070008D107000820
:10006000D1070008D1070008D1070008D107000810
:10007000D1070008D1070008D1070008D107000800
:10008000D1070008D1070008D1070008D1070008F0
:10009000D1070008D1070008D1070008D1070008E0
:1000A000D1070008D1070008D1070008D1070008D0
:1000B000D1070008D1070008D1070008D1070008C0
:1000C000D1070008D1070008D1070008D1070008B0
:1000D000D1070008D1070008D1070008D1070008A0
:1000E000D1070008D1070008D1070008D107000890
:1000F000D1070008D1070008D1070008D107000880
:10010000D1070008D1070008D1070008D10700086F
:10011000D1070008D1070008D1070008D10700085F
:10012000D1070008D1070008D1070008D10700084F
:10013000D1070008D1070008D1070008D10700083F
:10014000D1070008D1070008D1070008D10700082F
:10015000D1070008D107000800000000D1070008FF
:10016000D1070008D10700080000000000000000CF
:10017000D1070008D1070008D107000800000000DF
:1001800000000000D1070008D1070008D1070008CF
:10019000D10700080000000000000000000000007F
:1001A000000000000000000000000000D10700086F
:1001B000D107000800000000D1070008000000007F
:1001C000000000000000000000000000000000002F
:1001D0000000000000000000D1070008D10700085F
:1001E000D1070008D1070008D1070008D10700088F
:1001F000D1070008D1070008D1070008D10700087F
:0C020000D1070008D1070008D107000852
:10020C0010B5054C237833B9044B13B10448AFF344
:10021C0000800123237010BD640800200000000042
:10022C003C15000808B5034B1BB103490348AFF359
:10023C00008008BD00000000680800203C15000884
:10024C0053B94AB9002908BF00281CBF4FF0FF3131
:10025C004FF0FF3000F072B9ADF1080C6DE904CE2F
:10026C0000F006F8DDF804E0DDE9022304B0704785
:10027C002DE9F047089E04468846002B4BD18A4254
:10028C00154667D9B2FA82F24AB1C2F1200701FAD7
:10029C0002F320FA07F7954047EA030894404FEA27
:1002AC00154E230CB8FBFEF71FFA85FC0EFB1788C6
:1002BC0043EA084307FB0CF1994209D9EB1807F103
:1002CC00FF3080F01B81994240F21881023F2B4491
:1002DC005B1AA4B2B3FBFEF00EFB103344EA0344EA
:1002EC0000FB0CFCA44509D92C1900F1FF3380F05C
:1002FC000781A44540F2048102382C4440EA0740AF
:10030C00A4EB0C0400271EB1D4400023C6E9004323
:10031C003946BDE8F0878B4209D9002E00F0EB80FE
:10032C000027C6E9000138463946BDE8F087B3FA24
:10033C0083F7002F47D18B4202D3824200F2FA801E
:10034C00841A61EB030301209846002EE0D0C6E925
:10035C000048DDE702B9FFDEB2FA82F2002A40F073
:10036C008F80491B4FEA154E1FFA85F80127B1FB08
:10037C00FEFC230C0EFB1C1143EA014308FB0CF1A1
:10038C00994207D9EB180CF1FF3002D2994200F2D6
:10039C00CD808446591AA3B2B1FBFEF00EFB1014AB
:1003AC0043EA044408FB00F8A04507D92C1900F1D6
:1003BC00FF3302D2A04500F2B6801846A4EB080425
:1003CC0040EA0C409FE7C7F1200CBB4022FA0CFE20
:1003DC004EEA030E01FA07F420FA0CF521FA0CF39D
:1003EC004FEA1E482543B3FBF8F92C0C08FB1933D4
:1003FC001FFA8EFA44EA034309FB0AF49C4202FA00
:10040C0007F200FA07F10BD91EEB030309F1FF30D9
:10041C0080F087809C4240F28480A9F102097344E9
:10042C001B1BADB2B3FBF8F008FB103345EA0344D9
:10043C0000FB0AFAA24508D91EEB040400F1FF33B5
:10044C006BD2A24569D90238744440EA0940A0FB3A
:10045C000289A4EB0A044C45C2464B4654D351D0F6
:10046C00002E69D0B1EB0A0564EB030404FA0CFC12
:10047C00FD40FC404CEA0505C6E90054002747E75F
:10048C00C2F1200320FA03F7954001FA02F021FA99
:10049C0003F34FEA154E3843010CB3FBFEF71FFA7A
:1004AC0085F80EFB173341EA034107FB08F38B4237
:1004BC0004FA02F407D9691807F1FF3C2FD28B42DA
:1004CC002DD9023F2944CB1A81B2B3FBFEF00EFBAF
:1004DC00103341EA034100FB08F38B4207D969183A
:1004EC0000F1FF3C17D28B4215D902382944C91AA6
:1004FC0040EA07473BE73746304609E70746E7E659
:10050C001846FBE64145ABD2B8EB020A69EB0E028A
:10051C0001381346A4E76046E9E7184695E76746B5
:10052C00D1E781467CE702382C4447E7ACF1020C5A
:10053C002B442FE7384608E73746E9E6704700BFFB
:10054C0000B583B001214FF4401000F030FA68463A
:10055C0000F006FB01238DF8073000228DF80420F3
:10056C008DF80620009302238DF805306946034868
:10057C0000F0C0FA03B05DF804FB00BF00000240BD
:10058C0010B582B0044601210E4B53F8200000F048
:10059C000EFA684600F0E4FA01228DF807200023D9
:1005AC008DF804308DF80620074A32F8142000929A
:1005BC008DF805306946054B53F8240000F09AFA83
:1005CC0002B010BD000000200C0000201400002020
:1005DC00022807D8044B33F810301BB1034A52F8E9
:1005EC0020209361704700BF0C00002014000020F5
:1005FC00022809D8054B33F810302BB1044A52F8B5
:10060C0020104A6953404B61704700BF0C0000201A
:10061C001400002008B5042000F0ACFA074B1B684E
:10062C00074AA2FB03239B0C064A136012684FF483
:10063C007A7303FB02F3044A136008BD2000002008
:10064C0083DE1B43840800208008002008B5FFF7D8
:10065C00E1FF0020FFF794FF0020FFF7B9FFFFF741
:10066C006FFF08BD1AE0144B1B6803FB00F0134B23
:10067C0058600020114B00229A601A6842F0010267
:10068C001A600E4B1B6803F00113012BF9D00B4BB6
:10069C001A6822F001021A6000229A6058B13228BE
:1006AC00E1D9054B1A68322303FB02F3034A53606A
:1006BC00323880B2DEE770478008002010E000E09E
:1006CC0008B500F023F901211E4800F070F91E4B0B
:1006DC001A69012060F302021A6103F5E6331A6EFF
:1006EC0060F301021A66014600F080F900F04AF945
:1006FC000028FBD0032301229021104600F0CAF9F8
:10070C000121022000F072F9192000F029F90128CA
:10071C00FAD1002000F092F9042000F09FF9042097
:10072C0000F094F9012000F0A1F9022000F0D2F9B8
:10073C0000F0D8F90228FBD1002000F097F900F066
:10074C0079F808BD1C004000007000407047FEE7BF
:10075C00FEE7FEE7FEE7704770477047704708B545
:10076C00FFF7AEFFFFF772FF1E20FFF77BFF0020A5
:10077C00FFF73EFF1E20FFF775FFF5E7002103E0B2
:10078C000B4B5B58435004310A480B4B42189A42AE
:10079C00F6D30A4A02E0002342F8043B084B9A4283
:1007AC00F9D300F011F800F0F5F9FFF7D8FF704716
:1007BC008415000800000020640800206408002054
:1007CC00E8080020FEE70000174AD2F8883043F40E
:1007DC007003C2F88830154A136843F001031360A4
:1007EC00124B1B6813F0020FFAD0104B9A686FF380
:1007FC0001029A600D4B9B6813F00C0FFAD10B4B56
:10080C001A6822F0867222F480321A6000229A60F2
:10081C0007495960C3F8A0204FF41F02DA60024B5D
:10082C004FF000629A60704700ED00E00038024023
:10083C00023003002DE9F04B00F054F901281AD0D6
:10084C0028B1022826D02B4B2B4A1A6016E02B4BD2
:10085C00D3F8A03013F4804F09D0284BD3F8A03034
:10086C0013F4805F03D0234B254A1A6006E0214B1A
:10087C00214A1A6002E01F4B1F4A1A601F4B9B68EB
:10088C00C3F303131F4AD15C1A4A1368CB4013609D
:10089C00BDE8F08B194B5A685868C0F388105A6839
:1008AC0002F00F025B68C3F302431749CB5C86B2BC
:1008BC00002774010025A41B65EB0705A90141EA7B
:1008CC009461A001001B61EB0501CC0044EA50745B
:1008DC00C500A81944EB07014C0244EAD054450268
:1008EC002846214603FB02F20023FFF7A9FC014B2B
:1008FC001860C3E72000002000127A000038024084
:10090C00006CDC025C15000854150008124A1368D0
:10091C0043F001031360104B1B6813F0020FFAD065
:10092C000D4B9A686FF301029A600B4B9B6813F0A6
:10093C000C0FFAD1084B1A6822F0867222F480321E
:10094C001A6000229A6005495960C3F8A0204FF440
:10095C001F02DA60704700BF00380240023003000B
:10096C00030C03F1804303F50E331A6800F01F00EB
:10097C00012303FA00F030EA020301D00020704793
:10098C000120704710B500241120FFF7E9FF012862
:10099C0004D0B4F5405F01D20134F5E71120FFF724
:1009AC00DFFF012801D0002010BD0120FCE7012948
:1009BC000ED0030C03F1804303F50E331A6800F0DC
:1009CC001F00012101FA00F022EA000018607047B4
:1009DC00030C03F1804303F50E331A6800F01F007B
:1009EC0001FA00F01043186070470000042821D869
:1009FC00DFE800F003090F151B000F4B1A6861F3B9
:100A0C0000021A6070470C4B1A6861F310421A60AE
:100A1C007047094B1A6861F318621A607047064BED
:100A2C001A6F61F300021A677047034B5A6F61F338
:100A3C0000025A67704700BF00380240024B9A68A8
:100A4C0060F307129A60704700380240024B9A68B4
:100A5C0060F38C229A60704700380240024B9A680F
:100A6C0060F34F329A60704700380240012807D07B
:100A7C00074BD3F8A4206FF30512C3F8A4207047DA
:100A8C00034AD2F8A43043F03003C2F8A4307047C4
:100A9C000038024030B4054630B90D4CD4F8A000F3
:100AAC0040F48050C4F8A0000948446865F396549B
:100ABC004460446861F38E144460416862F303013E
:100ACC004160426863F31242426030BC704700BF21
:100ADC0000380240024B9A6860F301029A6070473A
:100AEC0000380240024B9868C0F38100704700BF89
:100AFC0000380240F0B40D88002302E06D08013389
:100B0C009BB25DB315F0010FF8D006685C000322B0
:100B1C00A240D2431640066006688F79A7403E4338
:100B2C000660466801279F4026EA0706466046682D
:100B3C000F799F403E434660866816408660866803
:100B4C00CF79A7403E438660C6683240C260C26817
:100B5C004E7906FA04F41443C460CFE7F0BC704736
:100B6C004FF6FF73036000238371037143710123FC
:100B7C00C3717047042805D0054A136823F0040399
:100B8C0013607047024A136843F004031360704704
:100B9C0010E000E070B50D4E0D4D761BB61006D072
:100BAC000024013455F8043B9847A642F9D1094E6C
:100BBC00094D761B00F0BCFCB61006D000240134A5
:100BCC0055F8043B9847A642F9D170BD781500083A
:100BDC00781500088015000878150008024B13B131
:100BEC00024800F005B8704700000000090C00082E
:100BFC00002301461A46184600F02CBC38B50A4CA6
:100C0C000A4D641BA4100AD004F18043013B05EB90
:100C1C008305013C55F804399847002CF9D1BDE8FF
:100C2C00384000F08BBC00BF84150008801500080C
:100C3C00F8B5244F0C46064600F0EEFBBB685D6829
:100C4C00C4F57E610F3125F00305294421F47F6141
:100C5C0021F00F01A1F58054B4F5805F07DB002172
:100C6C00304600F0E5FBBB682B44984204D030467C
:100C7C0000F0D8FB0020F8BD6142304600F0D8FBF4
:100C8C0001300DD0104BBA6819682D1B45F00105C9
:100C9C003046091B5560196000F0C4FB0120F8BDFB
:100CAC000021304600F0C4FBBA68831A0F2BDEDD3E
:100CBC00064C0549246843F00103001B536008608F
:100CCC00D5E700BF54040020880800205C080020F1
:100CDC00002953D0F8B50C46064600F09DFB54F89D
:100CEC0004CC714F2CF00101A4F108056B18B86805
:100CFC005A68984222F0030253D01CF0010F5A603C
:100D0C0003EB02003BD154F808CC4068A5EB0C0572
:100D1C0007F1080EAC687445614400F0010075D011
:100D2C00D5F80CC0C4F80CC0CCF8084060B341F046
:100D3C0001036B606950B1F5007F50D34B0A042B53
:100D4C0070D88B0903F13904E40003F13802381927
:100D5C003B590838984278D05A6822F003028A42EC
:100D6C0071D99B689842F7D1C368C5E902039D60AD
:100D7C00C5603046BDE8F84000F054BB7047406891
:100D8C0000F001000028D2D19868484C1144A042D0
:100D9C0041F0010262D0DB68C36098606A60695000
:100DAC00C9E71CF0010F0A4407D154F8083CED1AAE
:100DBC001A44D5E90213CB6099603D4B1B6842F095
:100DCC00010193426960BD6004D83A4B3046196802
:100DDC00FFF72EFF3046BDE8F84000F023BBC908F2
:100DEC0078684A1C012389108B40034307EBC2012E
:100DFC0057F832007B600839C5E9020147F83250D8
:100E0C00C5603046BDE8F84000F00CBB002845D169
:100E1C000A44D3E9021342F00100CB609960686088
:100E2C00AA50D7E7142B08D9542B1ED80B0B03F15F
:100E3C006F04E40003F16E0289E703F15C04E40043
:100E4C0003F15B0283E718468EE793107968012261
:100E5C0002FA03F30B437B60034686E7C7E90455AC
:100E6C00C5E902006A606950B4E7B3F5AA7F06D8F9
:100E7C00CB0B03F17804E40003F1770267E740F24F
:100E8C005452934206D88B0C03F17D04E40003F119
:100E9C007C025CE74FF47E747E2258E741F001023D
:100EAC006A60196096E700BF540400205C040020BF
:100EBC0060080020B8080020704700BF704700BFD2
:100ECC00024B0146186800F003B800BF2400002054
:100EDC002DE9F04F01F10B05162D83B0064623D8F2
:100EEC00102900F2B98000F097FA1025182302207F
:100EFC00C54F3B44A3F108025C68944200F0668144
:100F0C00636823F003032344D4E902515A68E9606F
:100F1C0042F001028D6030465A6000F083FA0834CA
:100F2C00204603B0BDE8F08F35F0070500F1948042
:100F3C00A94200F2918000F06FFAB5F5FC7FC0F089
:100F4C0083816B0A00F08F80042B00F24681AB0981
:100F5C0003F1390003F1380CC300AB4F3B44A3F150
:100F6C0008015C68A14206D10CE0002A80F21D81C8
:100F7C00E468A14206D0636823F003035A1B0F2ACE
:100F8C00F3DD60463C69DFF894C2644571D0636858
:100F9C0023F003035A1B0F2A00F34481002AC7E9EC
:100FAC0004CC80F22681B3F5007F80F06981DB08E8
:100FBC00591C7A6857F83180C4F808804FF0010E3C
:100FCC009B100EFA03F307EBC10E1343AEF10802AC
:100FDC00E2607B6047F83140C8F80C408210012475
:100FEC0094409C424BD81C4206D120F00300640074
:100FFC001C4200F10400FAD007EBC009CE46804633
:10100C00DEF80C309E4507D122E1002A80F22981BE
:10101C00DB689E4500F01C81596821F003014A1BD6
:10102C000F2AF2DDD3E9028E5C1945F001055D60F3
:10103C0042F00105C8F80CE03046CEF80880C7E94C
:10104C000444C4E902CC65605A50019300F0EAF9FB
:10105C00019B03F1080463E700240C232046336052
:10106C0003B0BDE8F08F4FF4007340204FF03F0CFD
:10107C0073E77B688210012494409C42B3D9BC680E
:10108C00636823F00309A94503D3A9EB05030F2BD0
:10109C007BDC5E4BDFF888A11A68DAF8003001338C
:1010AC0005EB020800F0488108F5805808F10F089C
:1010BC0028F47F6828F00F084146304600F0B8F954
:1010CC00B0F1FF3F834600F0048104EB0900584562
:1010DC0000F2FD804E4A13684344136000F04D81CA
:1010EC00DAF8001001311BBFABEB00001B18CAF87B
:1010FC0000B013601BF0070300F03481C3F108014A
:10110C00C3F580538B440833D844C8F30B08A3EBC6
:10111C00080841463046019200F08AF9431C019AB6
:10112C0000F04681A0EB0B01414441F00101136832
:10113C00C7F808B04344BC42CBF80410136015D078
:10114C00B9F10F0F40F230816068A9F10C0121F068
:10115C00070100F0010004EB010C08434FF0050EF1
:10116C000F296060CCE901EE00F23A81294A2A4845
:10117C001168BC688B42016888BF136062688B423F
:10118C0022F0030288BF0360A7E0621943F0010359
:10119C0045F0010565603046BA60536000F042F9D5
:1011AC000834204603B0BDE8F08F2344E1685A6848
:1011BC00A56842F00102E96030468D605A6000F08B
:1011CC0031F90834204603B0BDE8F08FDC68A34247
:1011DC0008BF02303FF4D6AE92E6142B71D9542BD3
:1011EC0000F2AD802B0B03F16F0003F16E0CC3000A
:1011FC00B3E6234430465A6842F001025A60083480
:10120C0000F010F98CE600BF54040020B808002050
:10121C0088080020B0080020B40800205C040020DE
:10122C005C080020611945F0010E42F00105C4F87C
:10123C0004E03046C7E90411C1E902CC4D60E2502C
:10124C0000F0F0F808346BE6E80805F108034FE607
:10125C0008F1010818F0030F0EF1080E7FF4D0AE60
:10126C0052E019441C464A68DB6854F8085F42F0A7
:10127C0001024A603046EB609D6000F0D3F84FE607
:10128C005A0A042A35D9142A6FD802F15C01C90014
:10129C005B3207EB010E7958AEF1080E8E4558D033
:1012AC004A6822F003029A4202D989688E45F7D126
:1012BC00D1F80CE07B68C4E9021ECEF80840CC6083
:1012CC008CE603F15C0003F15B0CC30045E6BC4209
:1012DC0072D0BC68626822F003029542A2EB05034F
:1012EC0002D80F2B3FF751AF304600F09BF800248B
:1012FC0016E69A0902F13901C9003832C9E7D9F862
:10130C000090994540F0838010F0030FA9F1080379
:10131C0000F1FF30F3D17B6823EA04037B606400A7
:10132C009C423FF6ACAE1CB9A9E6640008F1040877
:10133C001C42FAD040465FE608F11008BCE6B3F553
:10134C00AA7F26D8EB0B03F1780003F1770CC300CE
:10135C0003E67B6892104FF0010808FA02F213437F
:10136C007B60A8E74FF48053CEE6542A29D81A0B99
:10137C0002F16F01C9006E328BE7C0F30B0100293B
:10138C007FF4AEAE09EB0802B96842F001024A6084
:10139C00ECE640F2545293421CD8AB0C03F17D00A6
:1013AC0003F17C0CC300D8E50123CBF804309BE798
:1013BC0001214FF00008BAE6164A13684344136043
:1013CC008EE6B2F5AA7F14D8DA0B02F17801C900C7
:1013DC0077325EE74FF47E737F204FF07E0CBCE5D6
:1013EC0004F1080130460192FFF772FC019A136870
:1013FC00BCE640F254518A4205D89A0C02F17D01A8
:10140C00C9007C3245E74FF47E717E2241E77B6850
:10141C0085E700BF880800200148FFF74DBD00BFDD
:10142C00D00800200148FFF749BD00BFD0080020BC
:10143C0038B5074C002305460846236000F06AF8CF
:10144C00431C00D038BD2368002BFBD02B6038BD6B
:10145C00E40800202DE9F8432B4D064628689846F1
:10146C000F469146FFF728FD284B1C68D4F84831ED
:10147C00002B3DD05A681F2A0DDC02F1010C16BB63
:10148C000232C3F804C0286843F82270FFF716FD37
:10149C000020BDE8F8831E4B7BB34FF4C870FFF7F8
:1014AC000FFD034648B3D4F848210021C0E90021C0
:1014BC004FF0010CC4F848010A46C0F88811C0F876
:1014CC008C11002EDCD003EB82010124C1F8889032
:1014DC00D3F8880194402043022EC3F88801C1F848
:1014EC000881CDD1D3F88C110C43C3F88C41C7E7DC
:1014FC0004F5A673C4F84831BCE72868FFF7DEFC96
:10150C004FF0FF30C5E700BF500400206C150008F9
:10151C00CD0E0008044A05491368002B08BF0B4682
:10152C001844106018467047BC080020E8080020DA
:10153C00F8B500BFF8BC08BC9E467047F8B500BFB4
:08154C00F8BC08BC9E46704784
:101554000102040810200000000000000000000048
:0C1564000102030406070809280000200B
:081570000CEDFF7F01000000FB
:08157800E90B00083102000834
:041580000D02000850
:10158400020030000300300003003000002000405F
:101594000080000000080240000C0240000C0240E1
:1015A40000127A002800002000000000140300202C
:1015B4007C030020E4030020000000000000000081
:1015C4000000000000000000000000000000000017
:1015D4000000000000000000000000000000000007
:1015E40000000000000000000000000000000000F7
:1015F40000000000000000000000000000000000E7
:1016040000000000000000000000000000000000D6
:1016140000000000000000000000000000000000C6
:1016240000000000000000000000000000000000B6
:1016340000000000000000000000000000000000A6
:101644000000000000000000000000000000000096
:1016540001000000000000000E33CDAB34126DE633
:10166400ECDE05000B00000000000000000000009C
:101674000000000000000000000000000000000066
:101684000000000000000000000000000000000056
:101694000000000000000000000000000000000046
:1016A4000000000000000000000000000000000036
:1019D400C0080020000000000000000054040020A3
:1019E400540400205C0400205C04002064040020F3
:1019F400640400206C0400206C04002074040020A3
:101A0400740400207C0400207C0400208404002052
:101A1400840400208C0400208C0400209404002002
:101A2400940400209C0400209C040020A4040020B2
:101A3400A4040020AC040020AC040020B404002062
:101A4400B4040020BC040020BC040020C404002012
:101A5400C4040020CC040020CC040020D4040020C2
:101A6400D4040020DC040020DC040020E404002072
:101A7400E4040020EC040020EC040020F404002022
:101A8400F4040020FC040020FC04002004050020D1
:101A9400040500200C0500200C050020140500207E
:101AA400140500201C0500201C050020240500202E
:101AB400240500202C0500202C05002034050020DE
:101AC400340500203C0500203C050020440500208E
:101AD400440500204C0500204C050020540500203E
:101AE400540500205C0500205C05002064050020EE
:101AF400640500206C0500206C050020740500209E
:101B0400740500207C0500207C050020840500204D
:101B1400840500208C0500208C05002094050020FD
:101B2400940500209C0500209C050020A4050020AD
:101B3400A4050020AC050020AC050020B40500205D
:101B4400B4050020BC050020BC050020C40500200D
:101B5400C4050020CC050020CC050020D4050020BD
:101B6400D4050020DC050020DC050020E40500206D
:101B7400E4050020EC050020EC050020F40500201D
:101B8400F4050020FC050020FC05002004060020CC
:101B9400040600200C0600200C0600201406002079
:101BA400140600201C0600201C0600202406002029
:101BB400240600202C0600202C06002034060020D9
:101BC400340600203C0600203C0600204406002089
:101BD400440600204C0600204C0600205406002039
:101BE400540600205C0600205C06002064060020E9
:101BF400640600206C0600206C0600207406002099
:101C0400740600207C0600207C0600208406002048
:101C1400840600208C0600208C06002094060020F8
:101C2400940600209C0600209C060020A4060020A8
:101C3400A4060020AC060020AC060020B406002058
:101C4400B4060020BC060020BC060020C406002008
:101C5400C4060020CC060020CC060020D4060020B8
:101C6400D4060020DC060020DC060020E406002068
:101C7400E4060020EC060020EC060020F406002018
:101C8400F4060020FC060020FC06002004070020C7
:101C9400040700200C0700200C0700201407002074
:101CA400140700201C0700201C0700202407002024
:101CB400240700202C0700202C07002034070020D4
:101CC400340700203C0700203C0700204407002084
:101CD400440700204C0700204C0700205407002034
:101CE400540700205C0700205C07002064070020E4
:101CF400640700206C0700206C0700207407002094
:101D0400740700207C0700207C0700208407002043
:101D1400840700208C0700208C07002094070020F3
:101D2400940700209C0700209C070020A4070020A3
:101D3400A4070020AC070020AC070020B407002053
:101D4400B4070020BC070020BC070020C407002003
:101D5400C4070020CC070020CC070020D4070020B3
:101D6400D4070020DC070020DC070020E407002063
:101D7400E4070020EC070020EC070020F407002013
:101D8400F4070020FC070020FC07002004080020C2
:101D9400040800200C0800200C080020140800206F
:101DA400140800201C0800201C080020240800201F
:101DB400240800202C0800202C08002034080020CF
:101DC400340800203C0800203C080020440800207F
:101DD400440800204C0800204C080020FFFFFFFFAF
:041DE40000000200F9
:04000005080007895F
:00000001FF
